:04000000803114280F
:100008007E14803140017F08E5004E01961A8C1E4F
:100018000F289731842740016508FF007E100900EA
:1000280080311628C23084009F3085004630860013
:10003800013087000030FF000D309F319C27803150
:10004800F830840025308500F830FE000130FF00CC
:100058009F319027E6014101D401D5014201D30126
:10006800D4017E1040019431F52C4101B2005B307F
:100078004001DE005E084101A30040015A08DF008C
:100088005908DE00D90A0319DA0A5E0884005F08F5
:1000980085000008E00060084101B800380803192D
:1000A8004F2E2530380603195C2838084001412EA8
:1000B800A801A901AA01AB0168284101AB150130CB
:1000C8004001D9070030DA3D4001590884005A0838
:1000D80085000008233A031961287228590884000A
:1000E8005A08850000089F31CF278031031CB928A2
:1000F8004101A801A9010A304001A4000030A5006F
:10010800410129084001A700410128084001A60033
:1001180093319E238031400125084101A900400107
:1001280024084101A8004001590884005A088500A4
:100138000008D03EDE00FF3003180030DF005E0804
:100148004101A80740015F084101A93D0130400174
:10015800D9070030DA3D590884005A08850000089C
:100168009F31CF27803103187F2840015908840028
:100178005A08850012002E3A031D042941012B1745
:1001880001304001D9070030DA3D4101B601B7011D
:100198004001590884005A08850000089F31CF277C
:1001A8008031031C0B294001590884005A08850036
:1001B8000008DE00DF01410137084001A5004101C8
:1001C80036084001A4000A30A6000030A700933189
:1001D8009E23803140015E082407E0005F08253D2A
:1001E800E1006008D03E4101B600FF304001613DAA
:1001F8004101B70001304001D9070030DA3DCC2871
:100208004101B601B7012B160B292B1521294001F5
:100218005A08DF005908DE00D90A0319DA0A5E080D
:1002280084005F08850000084101B800003A0319FE
:100238004F2E663A03190929412800302A05400142
:10024800DE00073041012B054001DF005E085F0436
:100258000319742D41012B1E35290630B6000030D4
:10026800B700230886008701403FB300413FB40030
:10027800423FB50003304001DE005E084101A3079C
:100288003308F0003408F1003508F2000030F300BC
:100298000030F4000030F5009431BA24803103189E
:1002A8006A2941013308F0003408F1003508F200EA
:1002B8009F315F27803170084101B3007108B40095
:1002C8007208B5000330AA040030AB044101B00144
:1002D800B10135083404330403192A2AB3308600DF
:1002E8008701403F4001DE00413FDF00423FE00020
:1002F800433FE1000F30E136E00CDF0CDE0C890BE8
:100308007F29FF305E05E20000305F05E3006208E8
:10031800823E4101B000FF304001633D4101B10020
:10032800FF30B007FF30B13D03304001A40000307A
:10033800A500410131084001A700410130084001F2
:10034800A60093319E238031400125084101B10068
:10035800400124084101B0000A30F7000030F800DD
:100368003108FA003008F90096310F2680317808F4
:100378004101B1007708B000B11FC629FF30B007AE
:10038800FF30B13D3003FF3A8D31BC25803140014B
:1003980038084101AC00400139084101AD00400175
:1003A8003A084101AE0033084001A8004101340871
:1003B8004001A900410135084001AA0041012C086B
:1003C8004001AB0041012D084001AC0041012E085D
:1003D8004001AD008831C220803140012808410128
:1003E800AC00400129084101AD0040012A08410143
:1003F800AE002C08F0002D08F1002E08F2000030A5
:10040800F3008030F4003F30F5009431BA24803195
:100418000318132AFF304101B007FF30292A410190
:100428002C08F0002D08F1002E08F2000030F3002F
:100438002030F4004130F5009431BA248031031C97
:100448002A2A01304101B0070030B13D4101370887
:10045800803A4001DE0080305E02031D362A0D30EE
:100468004101360203185F2A4101360886315426B5
:10047800803140013808C6003908C7003A08C8006A
:10048800410133084001C900410134084001CA0054
:10049800410135084001CB008B31A923803140014F
:1004A80046084101B300400147084101B40040013A
:1004B80048084101B50041013108803A4001DE0099
:1004C80080305E02031D6B2A0A3041013002031896
:1004D800962A41013508340433040319DE2A330807
:1004E8004001B800410134084001B9004101350814
:1004F8004001BA0088313B20803140013B083A0472
:1005080039043804031DDE2A41013108803A4001CC
:10051800DE0080305E02031D942A02304101300261
:10052800031CDE2A41012C08F0002D08F1002E08DA
:10053800F2007030F3008930F4004030F500943157
:10054800BA2480310318AA2AF730AB2AF8304101BF
:10055800B007FF30B13D30088D31BC2580314001F6
:1005680038084101AC00400139084101AD004001A3
:100578003A084101AE003308F0003408F1003508AC
:10058800F2002C08F3002D08F4002E08F50089313C
:100598007621803173084101A7007208A60071080E
:1005A800A5007008A4000030B3000030B40000308B
:1005B800B5002C2B410133084001B8004101340833
:1005C8004001B900410135084001BA0088313B209B
:1005D800803140013B084101A70040013A08410130
:1005E800A600400139084101A50040013808410131
:1005F800A4002708FB002608FA002508F9002408AB
:10060800F80094315724803178084001D3007908E4
:10061800D4007A08D500410133084001D6004101D1
:1006280034084001D700410135084001D800933112
:10063800D6238031400153084101B30040015408DA
:100648004101B400400155084101B500B001B101B4
:10065800B801B80A0A3038060319692B380840016E
:10066800DE00DF01DE35DF0DDE35DF0D00305E0731
:10067800840098305F3D8500003FE000013FE100C5
:10068800023FE200033FE300630841012702031D24
:100698005D2B4001620841012602031D5D2B4001CC
:1006A800610841012502031D5D2B400160084101DD
:1006B8002402031C692B01304001DE005E08410161
:1006C800B8070A303806031D322B38084001DE000F
:1006D800DF01DE1BDF034101360840015E07E00051
:1006E8004101370840015F3DE10041013008400108
:1006F8006007E200410131084001613DE300620802
:100708004101A802400163084101A93BAB19902BA4
:10071800360837040319942BFF30A807FF30A93D8A
:1007280003302A054001DE00003041012B0540015D
:10073800DF005E085F040319A62BFF304101A807FC
:10074800FF30A93D41012908803A4001DE00803090
:100758005E02031DB22B013041012802031CC52B88
:1007680020304001DE004101320886008701400147
:100778005E0881000130DE005E084101B207FF30EB
:10078800A32B033041012A054001DE00003041015E
:100798002B054001DF005E085F040319E12B2D30B3
:1007A800DE00410132088600870140015E088100B1
:1007B8000130DE005E084101B207FF304001DE0073
:1007C8005E084101B807380A0319482C3808400167
:1007D800DE00DF01DE35DF0DDE35DF0D00305E07C0
:1007E800840098305F3D8500003FF000013FF10034
:1007F800023FF200033FF30041012708F7002608F3
:10080800F6002508F5002408F4009531BD2580314F
:1008180073084101AF007208AE007108AD0070089E
:10082800AC000030F3000030F2000030F1000A3074
:10083800F0002F08F7002E08F6002D08F5002C0808
:10084800F40095313625803173084101AF007208F4
:10085800AE007108AD007008AC002C08303E4001B5
:10086800D42B30304001DE00410132088600870178
:1008780040015E0881000130DE005E084101B207D8
:10088800FF30B007FF30B13D3108803A4001DE004B
:1008980080305E02031D532C0130410130020318E1
:1008A800352C41013708803A4001DE0080305E0275
:1008B800031D612C093041013602031C652C0830E8
:1008C800672C410136084001DE005E084101B8008E
:1008D80038084001DE00DF01DE1BDF035E0841014E
:1008E800B60240015F084101B73B3808031D7E2C62
:1008F800AB1D8D2C2E304001DE00410132088600F0
:10090800870140015E0881000130DE005E08410178
:10091800B20738088D31BC258031400138084101C3
:10092800A000400139084101A10040013A084101F5
:10093800A20020084001AB00410121084001AC00A1
:10094800410122084001AD00410133084001A800DF
:10095800410134084001A900410135084001AA00BD
:100968008831C220803140012808B8002908B90020
:100978002A08BA0088313B20803140013B084101F8
:10098800A70040013A084101A60040013908410189
:10099800A500400138084101A400FF304001DE00F5
:1009A8005E084101B807380A03196F2D380840015D
:1009B800DE00DF01DE35DF0DDE35DF0D00305E07DE
:1009C800840098305F3D8500003FF000013FF10052
:1009D800023FF200033FF30041012708F700260811
:1009E800F6002508F5002408F4009531BD2580316E
:1009F80073084101AF007208AE007108AD007008BD
:100A0800AC000030F3000030F2000030F1000A3092
:100A1800F0002F08F7002E08F6002D08F5002C0826
:100A2800F40095313625803173084101AF00720812
:100A3800AE007108AD007008AC002C08303E4001D3
:100A4800DE00410132088600870140015E0881000E
:100A58000130DE005E084101B20738084001DE00BF
:100A6800DF01DE35DF0DDE35DF0D00305E07840087
:100A780098305F3D8500003FF000013FF100023FE4
:100A8800F200033FF30041012708F7002608F600AB
:100A98002508F5002408F4009531362580317308BF
:100AA8004101A7007208A6007108A5007008D02CA3
:100AB80030304001DE0041013208860087014001E4
:100AC8005E0881000130DE005E084101B207FF3098
:100AD800B607FF30B73D36083704031941285C2DA7
:100AE800410136083704031D832D270826042504F1
:100AF8002404031D832D0130B6070030B73D3808A4
:100B08004001DE00DF01DE1BDF035F08803AE00002
:100B180041013708803A40016002031D972D4101C9
:100B2800360840015E020318A12D41013608400134
:100B3800DE005E084101B800BD2D410138084001C2
:100B4800DE00DF01DE1BDF0341013708803A400188
:100B5800E0005F08803A6002031DB52D5E08410180
:100B680036020318BD2D41013808B600B701B61B7F
:100B7800B7034101280829040319D42D03302A0595
:100B88004001DE00003041012B054001DF005E0816
:100B98005F040319D42DFF304101A807FF30A93D98
:100BA80041012B1FF02D3708803A4001DE0041013A
:100BB8002908803A40015E02031DE52D41012808FD
:100BC80036020318ED2D41013608A8023708A93B63
:100BD800F02D4101A801A90138084001DE00DF011C
:100BE800DE1BDF035F08803AE00041012908803AF4
:100BF80040016002031D042E4101280840015E02E5
:100C08000318152E410138084001DE00DF01DE1B04
:100C1800DF035E084101A80240015F084101A93BCA
:100C2800182E4101A801A901280829040319332E07
:100C380020304001DE004101320886008701400172
:100C48005E0881000130DE005E084101B207FF3016
:100C5800A807FF30A93D28082904031D1C2E0330CE
:100C68002A054001DE00003041012B054001DF006C
:100C78005E085F04031941282D30DE004101320867
:100C88008600870140015E0881000130DE005E08B1
:100C98004101B20741283208860087018101080016
:100CA8004001C5006E304502031C142F0A30F700BE
:100CB8000030F8004508BB00BC013B08F2003C08C6
:100CC800F3006430F0000030F1009531782586316A
:100CD8007108FA007008F90096310F2686317708F6
:100CE800093E4001A4000030783DA5000330A6006D
:100CF8000030A70093319E238631400125088500E6
:100D0800240884004F3084079830853D003FA800B0
:100D1800013FA900023FAA006430F7000030F80044
:100D28004508BD00BE013D08F9003E08FA009631AD
:100D38000F2686317708123E4001A4000030783D26
:100D4800A5000330A6000030A70093319E2386310A
:100D5800400125088500240884004F308407983016
:100D6800853D003FAB00013FAC00023FAD0088313C
:100D7800C220863140012808C2002908C3002A0879
:100D8800C4004508BB00BC013B08F2003C08F30066
:100D98000A30F0000030F10095317825863171086D
:100DA8004001A5007008A4000330A6000030A70089
:100DB80093319E238631400125088500240884004C
:100DC8004F3084079830853D003FA800013FA900B7
:100DD800023FAA004208AB004308AC004408AD003B
:100DE8008831C220863140012808BF002908C00088
:100DF8002A08C1000030A8000030A9003F30AA002E
:100E08003F08AB004008AC004108AD008831C22063
:100E180040012808B8002908B9002A08BA000800C3
:100E28000B304502031C8C2F4508BB00BC013B0856
:100E3800F2003C08F3000A30F0000030F100953170
:100E48007825863171084001A5007008A400033098
:100E5800A6000030A70093319E2386314001250863
:100E68008500240884004F3084079830853D003F72
:100E7800A800013FA900023FAA000A30F70000308D
:100E8800F8004508BD00BE013D08F9003E08FA001B
:100E980096310F2686317708093E4001A4000030BC
:100EA800783DA5000330A6000030A70093319E23AB
:100EB8008631400125088500240884004F308407C6
:100EC8009830853D003FAB00013FAC00023FAD00CC
:100ED8008831C220863140012808C2002908C30091
:100EE8002A08C4000030A8000030A9003F30AA003A
:100EF8004208AB004308AC004408AD008831C2206A
:100F080040012808B8002908B9002A08BA000800D2
:100F18000030A8000030A9003F30AA004508BB00F7
:100F2800BC013B08A4003C08A5000330A600003023
:100F3800A70093319E2386314001250885002408A7
:100F480084004F3084079830853D003FAB00013F57
:100F5800AC00023FAD008831C22040012808B8002B
:100F68002908B9002A08BA00080040309F31A8278C
:100F7800873180309F31A82787314201AF01063081
:100F88002F0203180800AE0154302E020318FB2F5D
:100F98002F08A600A7012E08A800A9012808A0006C
:100FA8002908A1000630A2000030A3009331BA231B
:100FB8008731F8304201AA002530AB0020082A0703
:100FC800AC0021082B3DAD0026082C078600270819
:100FD8002D3D870001089F31B52787310130420137
:100FE800A6002608AE0754302E02031CCC2F013071
:100FF800A6002608AF07C32F4201AF0106302F0213
:1010080003180800AE0154302E02031836282F08A2
:10101800A600A7012E08A800A9012808A0002908F1
:10102800A1000630A2000030A3009331BA23883112
:10103800F8304201AA002530AB0020082A07AC008E
:1010480021082B3DAD0026082C07860027082D3DDA
:10105800870081010130A6002608AE0754302E0211
:10106800031C0B280130A6002608AF070228400100
:101078003808BC003908BD003A08BE0003103D0D11
:101088003E0DBF003F08C5004508031D5428003029
:10109800BB000030BA000030B9000030B8000800CA
:1010A8003808BC003908BD003A08BE001730BE3603
:1010B800BD0CBC0C890B5B283C08BF003F08C00076
:1010C800B917FF30B805FF30B9050030BA05380840
:1010D800C1003908C2003A08C300C4018E30C502F5
:1010E800C51F92284508803A8F3E0318842800308F
:1010F800BB000030BA000030B9000030B80008006A
:101108000130C436C30CC20CC10C890B85280130D0
:10111800BC003C08C5070319AB28842818304502D1
:10112800031CA8280030BB000030BA000030B9000A
:101138000030B80008000130C135C20DC30DC40D20
:10114800890BA0280130C5024508031D9F284008C7
:101158000319B928C109C209C309C409C10A031975
:10116800C20A0319C30A0319C40A4408BB00430886
:10117800BA004208B9004108B80008004001280830
:10118800AE002908AF002A08B00003102F0D300D5B
:10119800B1003108B2003208031DD9280030A80078
:1011A8000030A9000030AA0008002B08AE002C0867
:1011B800AF002D08B00003102F0D300DB10031081D
:1011C800B7003708031DEF280030A8000030A90039
:1011D8000030AA00080037087B3EAE002E08B20790
:1011E8002808AE002908AF002A08B0001030B03631
:1011F800AF0CAE0C890BFB282E08B1003108B700E4
:101208002B08AE002C08AF002D08B0001030B03607
:10121800AF0CAE0C890B0B292E08B1003108B706AC
:101228008030AE002E08B705A917AC17FF30AB0504
:10123800FF30AC050030AD050030B3000030B4001D
:101248000030B5000730AE002E08B600281C322941
:101258002B08B3072C08B43D2D08B53D0130AA363C
:10126800A90CA80C890B33290130AB35AC0DAD0D99
:10127800890B39290130B602031D2A290930AE002D
:101288002E08B600281C4E292B08B3072C08B43D9D
:101298002D08B53D0130AA36A90CA80C890B4F2999
:1012A8000130B536B40CB30C890B55290130B602A0
:1012B800031D46293308F0003408F1003508F20010
:1012C8003208AE002E08F3003708AF002F08F400EC
:1012D8009631B82670084001A8007108A900720864
:1012E800AA0008007008F6007108F7007208F800F4
:1012F8000310770D780DF90079084001A50025083D
:10130800031D8F290030F3000030F2000030F10097
:101318000030F00008007308F6007408F70075083C
:10132800F8000310770D780DF9007908A400240857
:10133800031DA7290030F3000030F2000030F1004F
:101348000030F0000800F117FF30F005FF30F1051C
:101358000030F205F417FF30F305FF30F4050030D4
:10136800F5050030A3000030A2000030A1000030D5
:10137800A0007F30A50298302407F6007608A50261
:101388001830F6007608A4000130A035A10DA20D92
:10139800A30D890BC92975087202031DD929740880
:1013A8007102031DD92973087002031CE22973080E
:1013B800F0027408F13B7508F23B20140130F03557
:1013C800F10DF20D890BE3290130A402031DC82990
:1013D800A51F0A2A2508803A973E0318FC290030E1
:1013E800F3000030F2000030F1000030F000080097
:1013F8000130A336A20CA10CA00C890BFD290130E9
:10140800F6007608A5070319232AFC2918302502B7
:10141800031C202A0030F3000030F2000030F100F5
:101428000030F00008000130A035A10DA20DA30D79
:10143800890B182A0130A5022508031D172A23083D
:10144800F3002208F2002108F1002008F00008004B
:101458004201B30020303302031C080080303302FD
:1014680003180800B201053032020318BC2A5430B0
:101478005402031C482AD4010130A6002608D307C9
:10148800063053020318D301503033020318682A78
:101498000530A6002608A0003308E03E9231E62277
:1014A8008A314201A7002708B10031083207A60097
:1014B800A701A70DF430260784009130273D850049
:1014C8000008A8002808B00050303302031C882AFE
:1014D8000530A6002608A0003308B03E9231E62267
:1014E8008A314201A7002708B10031083207A60057
:1014F800A701A70D0430260784009130273D8500F9
:101508000008A8002808B0005308A600A70154083E
:10151800A800A9012808A0002908A1000630A200F7
:101528000030A3009331BA238A31F8304201AA006F
:101538002530AB0020082A07AC0021082B3DAD0060
:1015480026082C07AE0027082D3DAF002E08860080
:101558002F088700300881000130A6002608D4072C
:101568000130A6002608B20705303202031C3B2AC8
:101578005308A600A7015408A800A9012808A0003C
:101588002908A1000630A2000030A3009331BA2335
:10159800F8304201AA002530AB0020082A07AC0029
:1015A80021082B3DAD0026082C07860027082D3D75
:1015B800870081010130A6002608D40708004001F1
:1015C800B50020303502031C0800803035020318AE
:1015D8000800B4010530340203187D2B5430420151
:1015E8005402031C022BD40101304001A800280832
:1015F8004201D307063053020318D301503040018B
:1016080035020318232B0530A8002808F0003508F8
:10161800E03E9F31DD278A314001A9002908B30047
:1016280033083407A800A901A90DF430280784005D
:101638009130293D85000008AA002A08B2005030E0
:101648003502031C432B0530A8002808F000350894
:10165800B03E9F31DD278A314001A9002908B30037
:1016680033083407A800A901A90D0430280784000D
:101678009130293D85000008AA002A08B2004201DD
:1016880053084001A800A901420154084001AA00DA
:10169800AB012A08A4002B08A5000630A6000030DC
:1016A800A70093319E238A31F8304001AC002530E1
:1016B800AD0024082C07AE0025082D3DAF002808F2
:1016C8002E07B00029082F3DB100300886003108E8
:1016D8008700320881000130A80028084201D40799
:1016E80001304001A8002808B40705303402031C63
:1016F800F22A420153084001A800A90142015408F6
:101708004001AA00AB012A08A4002B08A500063056
:10171800A6000030A70093319E23F8304001AC00AA
:101728002530AD0024082C07AE0025082D3DAF005C
:1017380028082E07860029082F3D870081010130DF
:10174800A80028084201D407080040014608CC0038
:101758004708CD004808CE0003104D0D4E0DCF00B0
:101768004F08D2004908CC004A08CD004B08CE00EB
:1017780003104D0D4E0DCF004F08D100520803192C
:10178800D12B510852020318D82B5203FF3A5107A4
:10179800CC0019304C02031CD82B4908C6004A0853
:1017A800C7004B08C8000800510803190800520870
:1017B80051020318E72B5103FF3A5207CC001930A6
:1017C8004C02031808000630CC004C08D000C81B97
:1017D800D017CB1B5017C717FF30C605FF30C705FA
:1017E8000030C805CA17FF30C905FF30CA050030E8
:1017F800CB05510852020318232C0130C935CA0DF4
:10180800CB0D890B022C0130D10251085206031965
:101818001E2C0130D0025008073903191E2C012C48
:101828000130C836C70CC60C890B152C0130CC000A
:101838004C08D207520851060319482C142C520898
:1018480051020318482C0130C635C70DC80D890B45
:10185800282C0130D202510852060319442C0130B9
:10186800D002500807390319442C272C0130CB36F5
:10187800CA0CC90C890B3B2C0130CC004C08D10791
:1018880052085106031D3A2CD01F5A2CFF30C606A9
:10189800FF30C706FF30C8060130C60700300318FE
:1018A8000130C707003003180130C807501F6C2CDF
:1018B800FF30C906FF30CA06FF30CB060130C90722
:1018C800003003180130CA07003003180130CB0775
:1018D800D0014608C9074708CA3D4808CB3DCB1F79
:1018E800872CFF30C906FF30CA06FF30CB0601300F
:1018F800C907003003180130CA0700300318013047
:10190800CB07D001D00A4908F0004A08F1004B087B
:10191800F2005208CC004C08F3005008CD004D08E6
:10192800F4009631B82670084001C6007108C70057
:101938007208C8000800703086008701403FF60032
:10194800413FF700423FF800433FF9000310780D8C
:10195800790DFA007A084001A5002508031DBD2C61
:101968000030F3000030F2000030F1000030F000E9
:101978000800733086008701403FF600413FF700BA
:10198800423FF800433FF9000310780D790DFA0043
:101998007A08A4002408031DDA2C0030F300003074
:1019A800F2000030F1000030F000080070308600CE
:1019B8008701003081044131003081044131803099
:1019C8008104413100308104703086008701FF3086
:1019D80081054131FF3081054131FF3081054131B9
:1019E8000030810573308600870100308104413161
:1019F800003081044131803081044131003081045C
:101A0800733086008701FF3081054131FF30810541
:101A18004131FF3081054131003081050030A3009C
:101A28000030A2000030A1000030A0007F30A502E5
:101A3800A0302407F6007608A5022030F6007608C4
:101A4800A4000130A035A10DA20DA30D890B262DF0
:101A5800733086008701403FF600413FF700423F60
:101A6800F800433FF900703086008701403FFA00D4
:101A7800413FFB00423FFC00433FFD0079087D02E7
:101A8800031D502D78087C02031D502D77087B021A
:101A9800031D502D76087A02031C6D2D73308600C5
:101AA8008701403FF600413FF700423FF800433FBF
:101AB800F900703086008701760881024131770885
:101AC800813B41317808813B41317908813B7D3147
:101AD800201470308600870181354131810D4131F4
:101AE800810D4131810D7D310130A402031D252D69
:101AF800A51F9A2D2508803A9F3E03188C2D00308B
:101B0800F3000030F2000030F1000030F00008006F
:101B18000130A336A20CA10CA00C890B8D2D01302D
:101B2800F6007608A5070319B32D8C2D2030250261
:101B3800031CB02D0030F3000030F2000030F1003B
:101B48000030F00008000130A035A10DA20DA30D52
:101B5800890BA82D0130A5022508031DA72D2308F0
:101B6800F3002208F2002108F1002008F000080024
:101B78004001C000C01FE12EC009C00A4008803AD9
:101B8800123E031C652E0A30F7000030F8004008AA
:101B9800F200F301F21BF3036430F0000030F100AF
:101BA800953178258D317108FA007008F900963161
:101BB8000F268D317708093E4001A4000030783D9A
:101BC800A5000330A6000030A70093319E238D3175
:101BD800400125088500240884004F308407983088
:101BE800853D003FA800013FA900023FAA006430DC
:101BF800F7000030F8004008F900FA01F91BFA0371
:101C080096310F268D317708123E4001A40000302E
:101C1800783DA5000330A6000030A70093319E232D
:101C28008D31400125088500240884004F30840741
:101C38009830853D003FAB00013FAC00023FAD004E
:101C48008831C2208D3140012808BD002908BE0016
:101C58002A08BF004008F200F301F21BF3030A3020
:101C6800F0000030F100953178258D317108400180
:101C7800A5007008A4000330A6000030A700933127
:101C88009E238D31400125088500240884004F30AB
:101C980084079830853D003FA800013FA900023F16
:101CA800AA003D08AB003E08AC003F08AD008831F3
:101CB800C22040012808B8002908B9002A08BA003B
:101CC80008004008803A753E031CC42E4008F20004
:101CD800F301F21BF3030A30F0000030F1009531F4
:101CE80078258D3171084001A5007008A4000330E3
:101CF800A6000030A70093319E238D3140012508AE
:101D08008500240884004F3084079830853D003FC3
:101D1800A800013FA900023FAA000A30F7000030DE
:101D2800F8004008F900FA01F91BFA0396310F266A
:101D38008D317708093E4001A4000030783DA500A8
:101D48000330A6000030A70093319E238D31400157
:101D580025088500240884004F3084079830853D85
:101D6800003FAB00013FAC00023FAD008831C2200C
:101D780040012808B8002908B9002A08BA00080054
:101D88004008BB00BC013B08A4003C08A500033088
:101D9800A6000030A70093319E2340012508850046
:101DA800240884004F3084079830853D003FB800F0
:101DB800013FB900023FBA0008004008803A123ECD
:101DC800031C842F0A30F7000030F8004008F200A6
:101DD800F301F21BF3036430F0000030F100953199
:101DE80078258D317108FA007008F90096310F26B0
:101DF8008D317708093E4001A4000030783DA500E8
:101E08000330A6000030A70093319E238D31400196
:101E18002508850024088400283084079830853DEB
:101E2800003FA800013FA900023FAA006430F70064
:101E38000030F8004008F900FA01F91BFA0396315E
:101E48000F268D317708123E4001A4000030783DFE
:101E5800A5000330A6000030A70093319E238D31E2
:101E6800400125088500240884002830840798301C
:101E7800853D003FAB00013FAC00023FAD0088311B
:101E8800C2208D3140012808BD002908BE002A085B
:101E9800BF004008F200F301F21BF3030A30F00020
:101EA8000030F100953178258D3171084001A50089
:101EB8007008A4000330A6000030A70093319E23C9
:101EC8008D314001250885002408840028308407C6
:101ED8009830853D003FA800013FA900023FAA00B5
:101EE8003D08AB003E08AC003F08AD008831C22079
:101EF80040012808B8002908B9002A08BA000800D3
:101F08004008803A753E031CE32F4008F200F301B5
:101F1800F21BF3030A30F0000030F1009531782508
:101F28008D3171084001A5007008A4000330A60097
:101F38000030A70093319E238D314001250885008C
:101F480024088400283084079830853D003FA80085
:101F5800013FA900023FAA000A30F7000030F8004C
:101F68004008F900FA01F91BFA0396310F268D3162
:101F78007708093E4001A4000030783DA5000330F1
:101F8800A6000030A70093319E238D31400125081B
:101F9800850024088400283084079830853D003F58
:101FA800AB00013FAC00023FAD008831C2204001C8
:101FB8002808B8002908B9002A08BA00080040080B
:101FC800BB00BC013B08A4003C08A5000330A600E8
:101FD8000030A70093319E2340012508850024087E
:101FE8008400283084079830853D003FB800013FC1
:101FF800B900023FBA000800C0340134C0340134CB
:10200800C0340134C0340134C034013400340034E5
:102018000034003400340034003400340034003418
:102028000034003400340E3400340E3400340E34DE
:1020380000340034003400340034003400340034F8
:1020480000340034003400340034003400340034E8
:1020580000340034003400340034003400340034D8
:1020680000340034003400340034003400340034C8
:1020780000340034FC340334FE340734FF340F34A6
:1020880003340C3403340C34FF340F34FE34073477
:10209800FC34033400340034003400340034003499
:1020A80030340034383400341C340034FF340F34F6
:1020B800FF340F34FF340F3400340034003400345C
:1020C800003400340C340C340E340E340F340F3416
:1020D80083340F34C3340D34FF340C347E340C3461
:1020E8003C340C34003400340034003404340334F9
:1020F8000E3407340F340F3463340C3463340C3427
:10210800FF340F34FE3407349C3403340034003475
:1021180000340034C0340134E0340134F83401347C
:102128009C3401348E340134FF340F34FF340F34BF
:10213800FF340F34803401340034003478340334ED
:102148007F3407347F340F3433340C3433340C3455
:10215800F3340F34E3340734C33403340034003425
:1021680000340034F8340134FE340734FF340F34BB
:1021780023340C3433340C34F7340F34E734073455
:10218800C6340334003400340034003403340034DB
:102198000334003403340E34C3340F34F3340F34AF
:1021A800FB3400340F34003403340034003400347A
:1021B800003400349C340334FE340734FF340F34C5
:1021C80063340C3463340C34FF340F34FE34073476
:1021D8009C34033400340034003400343C34063476
:1021E8007E340E34FF340E34C3340C3443340C3490
:1021F800FF340F34FE340734F8340134003400342B
:102208007F3409340934093406343E3441345134B6
:1022180021345E347F340934193429344634463441
:102228004934493449343134013401347F34013478
:1022380001343F344034403440343F341F34203478
:10224800403420341F343F344034383440343F3431
:102258006334143408341434633407340834703461
:102268000834073461345134493445344334003434
:102278007F34413441340034023404340834103497
:1022880020340034413441347F340034043402347F
:10229800013402340434403440344034403440344F
:1022A80000340134023404340034203454345434B7
:1022B800543478347F3448344434443438343834EB
:1022C8004434443444342034383444344434483472
:1022D8007F343834543454345434183408347E3405
:1022E8000934013402340C345234523452343E34FA
:1022F8007F340834043404347834003444347D346E
:10230800403400342034403444343D3400347F3485
:102318001034283444340034003441347F34403499
:1023280000347C3404341834043478347C3408346D
:102338000434043478343834443444344434383439
:102348007C341434143414340834083414341434F5
:1023580018347C347C340834043404340834483465
:10236800543454345434203404343F3444344034E2
:1023780020343C344034403420347C341C34203401
:10238800403420341C343C344034303440343C3401
:10239800443428341034283444340C345034503401
:1023A80050343C344434643454344C34443400346D
:1023B8000834363441340034003400347F34003477
:1023C80000340034413436340834003410340834CE
:1023D8000834103408347834463441344634783478
:1023E80000340034003400340034003400345F34E6
:1023F8000034003400340734003407340034143413
:102408007F3414347F34143424342A347F342A3407
:10241800123423341334083464346234363449347F
:102428005534223450340034053403340034003435
:1024380000341C3422344134003400344134223412
:102448001C340034143408343E340834143408344A
:1024580008343E34083408340034503430340034FE
:10246800003408340834083408340834003460343C
:102478006034003400342034103408340434023416
:102488003E345134493445343E34003442347F3488
:1024980040340034423461345134493446342134B0
:1024A800413445344B3431341834143412347F34C5
:1024B8001034273445344534453439343C344A34AF
:1024C800493449343034013471340934053403341F
:1024D8003634493449344934363406344934493475
:1024E80029341E3400343634363400340034003491
:1024F8005634363400340034083414342234413429
:10250800003414341434143414341434003441347E
:102518002234143408340234013451340934063472
:1025280032344934793441343E347E3411341134F0
:1025380011347E347F3449344934493436343E3496
:1025480041344134413422347F34413441342234DB
:102558001C347F3449344934493441347F34093494
:102568000934093401343E344134493449347A3425
:102578007F340834083408347F34003441347F34DD
:10258800413400342034403441343F3401347F3402
:1025980008341434223441347F34403440344034D5
:1025A80040347F3402340C3402347F347F340434B2
:1025B800083410347F343E344134413441343E349D
:1025CC004201A300A201231CEF2A2008A10021082C
:1025DC00A2070310A00D0310A30C2308031DE92A66
:1025EC00220808007808F0007908F100F2018E301A
:1025FC00FB007B08F300F4019631B8267008F80054
:10260C007108F9007208FA00080072304B019F0043
:10261C0079309D009C011D084101D3004B011C0821
:10262C004101D2004E018C12961697304B019E0040
:10263C000800400136088600370887000108031996
:10264C0008004001360886003708870001088A31E7
:10265C00E322933101304001B6070030B73D1F2B08
:10266C004201340886003508870001080319080068
:10267C004201340886003508870001088A312C2273
:10268C00933101304201B4070030B53D362BF200D6
:10269C0054307202031C562B5330F1007108F200B7
:1026AC0006307002031C5E2B0530F1007108F0003F
:1026BC007208F10071084201D4007008F100710831
:1026CC00D300080041018C018D018E018F01920114
:1026DC00930198019A019F0142018C018D018E0199
:1026EC008F019001920193019401950103309600A2
:1026FC00970198018430910008004201A2005430E7
:10270C002202031C8D2B5330A1002108A20006309D
:10271C002002031C952B0530A1002108A0002208E3
:10272C00A1002108D4002008A1002108D300080032
:10273C00FC01FD014001241CA72B2608FC072708DF
:10274C00FD3D0130A635A70D890BA82B0130A53610
:10275C00A40C890BAD2B24082504031DA02B7D088C
:10276C00A5007C08A40008004201A401A501201CBE
:10277C00C32B2208A4072308A53D0130A235A30DC5
:10278C00890BC42B0130A136A00C890BC92B200856
:10279C002104031DBD2B2508A1002408A00008005E
:1027AC0040015508540453040319DE2B8030D50620
:1027BC005608C6005708C7005808C8005308C90077
:1027CC005408CA005508CB008B31A9234001460898
:1027DC00D3004708D4004808D500080040019801F0
:1027EC0099019A01DF309200FD309300C0309400C3
:1027FC00DC307E01CE00FE30C300C730B800E501EE
:10280C00C401B901CF01BA01C501D0017D01430852
:10281C00E0390838C3000800F1007108F0007008B6
:10282C00F3000830F0007008F200720803192F2C26
:10283C0040019A11F31B242C1A12252C1A169A15E6
:10284C007335F0007008F3000130F2027208031DBA
:10285C001E2C40019A1108004201A1002108A00081
:10286C002008A3000830A0002008A20022080319A9
:10287C00542C40019A114201A31B472C40011A12FF
:10288C00492C40011A169A1542012335A000200844
:10289C00A3000130A2022208031D3F2C40019A1113
:1028AC0008008E30FC007C08FD00FF307B0503190E
:1028BC006B2C0130FB36FA0CF90CF80C890B602CE4
:1028CC000130FC007C08FD075B2C7808F0007908CF
:1028DC00F1007A08F2007D08FC007C08F300F4019A
:1028EC009631B8267008F8007108F9007208FA00E1
:1028FC0008004001B000B101543031020318080047
:10290C003108A800A9012808A4002908A500063050
:10291C00A6000030A70093319E239431F83040017B
:10292C00AA002530AB0024082A07AC0025082B3D53
:10293C00AD000630F0000030F1003008AE00AF0101
:10294C002E08F2002F08F300953178259431700889
:10295C0040012C07860071082D3D87008101013054
:10296C00A8002808B107822CF21FD02C7009F600A1
:10297C007109F7007209F800F60A0319F70A03192E
:10298C00F80A00307607F0000030773DF100803017
:10299C00783DF200F51FE62C7309F6007409F70078
:1029AC007509F800F60A0319F70A0319F80A00303A
:1029BC007607F3000030773DF4008030783DF50069
:1029CC008030F2068030F50675087202031D08008F
:1029DC0074087102031D08007308700208009F310F
:1029EC00EE27943140019910463086000130870063
:1029FC0037308400013085000D304201B6001600DE
:102A0C001A00B60B052D97311C2794318831002004
:102A1C0094314201A0010830933183239431373033
:102A2C004201B4000130B500933136239431873123
:102A3C00B92794318B170B174201C401C501013022
:102A4C004201C4070030C53D4508803AB6008330CA
:102A5C003602031D332DE8304402031C252D222D94
:102A6C00730872047104700403196F2DF901F90ACB
:102A7C00F31B4C2D0130F035F10DF20DF30D890BDC
:102A8C00412D0130F8007808F9073E2D73087702C4
:102A9C00031D5A2D72087602031D5A2D71087502FA
:102AAC00031D5A2D70087402031C642D7008F40267
:102ABC007108F53B7208F63B7308F73B0130F336AF
:102ACC00F20CF10CF00C890B652D0130F902031D91
:102ADC004C2D7708F3007608F2007508F1007408A5
:102AEC00F0000800F601F31F822DF209F309F20A37
:102AFC000319F30AF601F60AF11F892DF009F10901
:102B0C00F00A0319F10A700871040319B02DF501CC
:102B1C00F50AF11B9B2D0130F035F10D890B922D2F
:102B2C000130F4007408F5078F2D71087302031D32
:102B3C00A12D70087202031CA72D7008F2027108F7
:102B4C00F33B0130F136F00C890BA82D0130F50266
:102B5C00031D9B2D76080319B82DF209F309F20A0F
:102B6C000319F30A7308F1007208F0000800003032
:102B7C00FC000030FB000030FA000030F900730854
:102B8C007204710470040319062EFD01FD0AF31B77
:102B9C00DB2D0130F035F10DF20DF30D890BD02D3D
:102BAC000130F8007808FD07CD2D0130F935FA0D0C
:102BBC00FB0DFC0D890BDC2D73087702031DF02D2A
:102BCC0072087602031DF02D71087502031DF02D9D
:102BDC0070087402031CFB2D7008F4027108F53B9D
:102BEC007208F63B7308F73B79140130F336F20C9C
:102BFC00F10CF00C890BFC2D0130FD02031DDB2DBB
:102C0C007C08F3007B08F2007A08F1007908F000E8
:102C1C0008004001A101F81F1A2EF709F809F70A5C
:102C2C000319F80AA101A10AFA1F252EF909FA09BC
:102C3C00F90A0319FA0A0130FB007B08A106A2016C
:102C4C00A301770878040319542EA001A00AF81BDD
:102C5C00392E0130F735F80D890B302E0130FB0081
:102C6C007B08A0072D2E0130A235A30D890B3A2E1F
:102C7C0078087A02031D442E77087902031C4B2E28
:102C8C007708F9027808FA3B22140130F836F70C71
:102C9C00890B4C2E0130A002031D392E210803197B
:102CAC005C2EA209A309A20A0319A30A2308F8009F
:102CBC002208F70008004001B0000630F000003098
:102CCC00F1003008A800A9012808F2002908F30037
:102CDC009531782596317008403E9F316F2796319B
:102CEC0080309F316F2796314001B1015430310251
:102CFC00031808003108A800A9012808A400290815
:102D0C00A5000630A6000030A70093319E23963113
:102D1C00F8304001AA002530AB0024082A07AC008B
:102D2C0025082B3DAD000630F0000030F1003008D6
:102D3C00AE00AF012E08F2002F08F3009531782574
:102D4C009631700840012C07860071082D3D8700D4
:102D5C0001089F317A27963101304001A8002808DC
:102D6C00B1077C2E73080319C02E7208710470040D
:102D7C00031DD12E0030F0000030F1000030F200C5
:102D8C0008000130F5007508F3070130F236F10C3C
:102D9C00F00C890BCC2EFE3072050319EA2EC72ECF
:102DAC000130F5007508F3070130F0070030031807
:102DBC000130F107003003180130F2070130F23610
:102DCC00F10CF00C890BE52EFF3072050319F72E70
:102DDC00D62E0130F3020130F035F10DF20D890BD6
:102DEC00F22EF11BFD2E023073020318EF2E731816
:102DFC00052FFF30F0057F30F105FF30F205031091
:102E0C00F30C7308F500F601F7011030F535F60DEB
:102E1C00F70D890B0C2F7508F0047608F104770870
:102E2C00F204740803190800F217080040011A157F
:102E3C009A141A1401304201A0000030A1009F31F5
:102E4C004527973140011A100A304201A00000308A
:102E5C00A1009F314527973140011A1401304201DE
:102E6C00A0000030A1009F314527973121309F31C0
:102E7C00A827973101304201A0000030A1009F31FA
:102E8C004527973104309F31A827973101304201F3
:102E9C00A0000030A1009F314527973116309F319B
:102EAC00A827973101304201A0000030A1009F31CA
:102EBC0045279731A0309F31A82797310130420127
:102ECC00A0000030A1009F314527973120309F3161
:102EDC00A827973101304201A0000030A1009F319A
:102EEC00452797310C309F31A8279731013042018B
:102EFC00A0000030A1009F31452708004E018C1224
:102F0C00410153084B019D00410152084B019C00AB
:102F1C00410154085504031DFC2F0130D40000302E
:102F2C00D50006309F31572797319F315027973165
:102F3C00003A03199B2F9F314A27973171084101A1
:102F4C00D1007008D000CD304001A800CC30A900D1
:102F5C003C30AA0041015108F9005008F8009231A8
:102F6C00F822973178084001AB007908AC007A0858
:102F7C00AD008831C2209731400128084101CD00B5
:102F8C00400129084101CE0040012A084101CF002F
:102F9C0000304001D900A030DA0041014D08400159
:102FAC00DB0041014E084001DC0041014F084001AB
:102FBC00DD00B930803139209731023094317F24D3
:102FCC00973102304001E4006408F0000030933186
:102FDC004D239731B9304001B6000030B700933122
:102FEC001F23973102309631612608004101D4012C
:102FFC00D501080001340034003400340A340034A4
:10300C00003400346434003400340034E8340334C5
:10301C00003400341034273400340034A0348634A7
:10302C0001340034403442340F340034803496344C
:10303C00983400340034E134F53405340034CA34A7
:10304C009A343B34003480343F34003420344134DF
:10305C000034C834423400347A34443440341C34A0
:10306C0046345034C334473424347434493497349C
:10307C0018344B34BC34BE344C346B346E344E3454
:10308C000334153450347934AD346034F33449346A
:10309C007134003480343F34CD34CC343D34D734A7
:1030AC0023343C34123483343A34B734D134383486
:1030BC00C63427343734383486343534C034D634B7
:1030CC003334CC342B343234703489343034E734E8
:1030DC00DB342E34E5343C341E344234A2340D340B
:103E8200853052018C0008005330890B462F000008
:103E9200080041011E08F1001D08F000080003108F
:103EA2004201111C03140030093D0800F0007008A3
:103EB20041019F0042019117111408007208710418
:103EC2007004031908008030F20608004F019601C1
:103ED2009701980199019A019B010800F4004001A1
:103EE2001A119A1074089431122440019A149A15E6
:103EF2000800F40040011A159A1074089431122433
:103F020040019A149A150800623051018D008F0108
:103F12009101023093009001203092000800640069
:103F2200800101310130FE020030FF3B7F087E0438
:103F320003190034912FFE0012001E000130FE0210
:103F42000030FF3B7F087E04031900349D2F42019D
:103F5200A40040011A119A1042012408943132241B
:103F620040019A149A1508004201A40040011A1552
:103F72009A10420124089431322440019A149A156D
:103F820008004E344F3449345334453420344D34D0
:103F920045345434453452340A340034F100F001CB
:103FA2003A3071020318DB2F30307102031CDB2F11
:103FB200F001F00A700C0800F300F201731CE52F07
:103FC2007008F1007108F2070310F00D0310F30CF2
:103FD2007308031DDF2F720808009F3167279F3186
:103FE2009331F4239F319F3185279F319331682389
:103FF2009F319F3141279F3193310B230800253494
:10400200233437342E343334663420347534563402
:0A401200203472346D34733400342E
:020000040001F9
:0A000E00E83FFF3F9F3FFF3FFF3F29
:00000001FF
