:04000000803114280F
:1000060008007E14803140017F08C6004E01961A12
:100016008C1E0F288531CE2540014608FF007E1034
:10002600090080311628D63084008E308500C6300F
:100036008600003087000030FF000D308E31B0267C
:100046008031F830840025308500F830FE0001301C
:10005600FF008E31A426CB01CC01CD014101D30195
:10006600D4017E1040018631B02EC0340134C03434
:100076000134C0340134C0340134C0340134003496
:1000860000340034003400340034003400340034CA
:1000960000340034003400340E3400340E3400349E
:1000A6000E3400340034003400340034003400349C
:1000B600003400340034003400340034003400349A
:1000C600003400340034003400340034003400348A
:1000D600003400340034003400340034003400347A
:1000E600003400340034FC340334FE340734FF3467
:1000F6000F3403340C3403340C34FF340F34FE3421
:100106000734FC3403340034003400340034003443
:10011600003430340034383400341C340034FF34B6
:100126000F34FF340F34FF340F34003400340034FE
:100136000034003400340C340C340E340E340F34D6
:100146000F3483340F34C3340D34FF340C347E340F
:100156000C343C340C3400340034003400340434A1
:1001660003340E3407340F340F3463340C346334E1
:100176000C34FF340F34FE3407349C34033400341B
:10018600003400340034C0340134E0340134F8342F
:1001960001349C3401348E340134FF340F34FF347F
:1001A6000F34FF340F348034013400340034783493
:1001B60003347F3407347F340F3433340C34333410
:1001C6000C34F3340F34E3340734C33403340034CB
:1001D600003400340034F8340134FE340734FF347C
:1001E6000F3423340C3433340C34F7340F34E734FF
:1001F6000734C63403340034003400340034033486
:1002060000340334003403340E34C3340F34F3346F
:100216000F34FB3400340F3400340334003400341C
:100226000034003400349C340334FE340734FF3485
:100236000F3463340C3463340C34FF340F34FE341F
:1002460007349C34033400340034003400343C3426
:1002560006347E340E34FF340E34C3340C34433447
:100266000C34FF340F34FE340734F83401340034D0
:1002760000347F3409340934093406343E344134B9
:10028600513421345E347F340934193429344634E8
:1002960046344934493449343134013401347F34E5
:1002A600013401343F344034403440343F341F3449
:1002B6002034403420341F343F3440343834403402
:1002C6003F34633414340834143463340734083444
:1002D6007034083407346134513449344534433476
:1002E60000347F3441344134003402340434083459
:1002F60010342034043402340134023404344034DB
:100306004034403440344034003401340234043440
:100316000034203454345434543478347F344834DC
:100326004434443438343834443444344434203443
:1003360038344434443448347F34383454345434B0
:100346005434183408347E340934013402340C34FD
:100356005234523452343E347F3408340434043434
:100366007834003444347D3440340034203440340E
:1003760044343D3400347F3410342834443400345B
:10038600003441347F34403400347C34043418342F
:10039600043478347C3408340434043478343834FF
:1003A60044344434443438347C34143414341434EB
:1003B600083408341434143418347C347C34083447
:1003C6000434043408344834543454345434203413
:1003D60004343F344434403420343C3440344034D4
:1003E60020347C341C342034403420341C343C34D7
:1003F6004034303440343C344434283410342834C7
:1004060044340C345034503450343C344434643422
:1004160054344C34443400340834363441340034D3
:10042600003400347F340034003400344134363430
:10043600083400341034083408341034083478345E
:1004460046344134463478340034003400340034C1
:1004560000340034003400340034003400340034F6
:100466005F34003400340034073400340734003479
:1004760014347F3414347F34143424342A347F34CF
:100486002A34123423341334083464346234363450
:10049600493455342234503400340534033400349E
:1004A600003400341C3422344134003400344134E6
:1004B60022341C340034143408343E3408341434E2
:1004C600083408343E3408340834003450343034A8
:1004D600003400340834083408340834083400344E
:1004E600603460340034003420341034083404346A
:1004F60002343E345134493445343E3400344234B7
:100506007F34403400344234613451344934463403
:100516002134413445344B343134183414341234D4
:100526007F341034273445344534453439343C342B
:100536004A34493449343034013471340934053489
:10054600033436344934493449343634063449346C
:10055600493429341E3400343634363400340034F9
:10056600003456343634003400340834143422341B
:100576004134003414341434143414341434003430
:1005860041342234143408340234013451340934E9
:10059600063432344934793441343E347E341134AD
:1005A600113411347E347F34493449344934363475
:1005B6003E3441344134413422347F344134413471
:1005C60022341C347F3449344934493441347F342D
:1005D60009340934093401343E3441344934493448
:1005E6007A347F340834083408347F340034413494
:1005F6007F34413400342034403441343F340134B4
:100606007F3408341434223441347F344034403447
:10061600403440347F3402340C3402347F347F3427
:100626000434083410347F343E3441344134413488
:100636003E344001AD002230A4002408A800210861
:10064600A5002008A400A00A0319A10A2408840012
:10065600250885000008A6002608AE002E08031906
:10066600E42B25302E060319442B2E08A4002D0852
:1006760086008701240881000130A4002408AD0704
:10068600222BA9012108A5002008A400A00A03190D
:10069600A10A24088400250885000008AE00003A57
:1006A6000319E42B643A03195C2B0D3A03195C2BEE
:1006B600222B280886008701403FAB00413FAC0053
:1006C6000230A4002408A807AC1F722B0330A40034
:1006D6002408A904AB09AC09AB0A0319AC0AAE019C
:1006E600AE0A05302E060319972B2E08A400A50185
:1006F600A435A50D0030240784009030253D8500E3
:10070600003FA600013FA70027082C02031D8D2BE2
:1007160026082B02031C972B0130A4002408AE07E1
:1007260005302E06031D782B290803390319A62B3D
:100736002D30A4002D088600870124088100013091
:10074600A4002408AD072E08A4002408AA00FF3040
:10075600A4002408AA072A0A0319222B0A30F80043
:100766000030F9002A08A400A501A435A50D003023
:10077600240784009030253D8500003FF000013FAE
:10078600F1002C08F3002B08F2008731262783316D
:100796007108FB007008FA008731892783317808D1
:1007A600303E4001A6002608AE002E08A4002D0803
:1007B60086008701240881000130A4002408AD07C3
:1007C600AA2B2D088600870181010800F900203038
:1007D6007902031C08008030790203180800F8012A
:1007E600053078020318832C543041015402031C4F
:1007F600072CD40101304001A00020084101D30795
:10080600063053020318D301503079020318282CFE
:1008160005304001A0002008F0007908E03E8E3146
:10082600E32683314001A1002108F7007708780705
:10083600A000A101A10D2C30200784008230213DAB
:1008460085000008A2002208F60050307902031C39
:10085600492C05304001A0002008F0007908B03E80
:100866008E31E32683314001A1002108F700770885
:100876007807A000A101A10D3C302007840081303B
:10088600213D85000008A2002208F6004101530818
:100896004001A000A101410154084001A200A301AA
:1008A6002208F0002308F1000630F2000030F300C1
:1008B6008F315A278331F8304001A4002530A50036
:1008C60070082407A6007108253DA7002008260702
:1008D600A8002108273DA9002808860029088700C6
:1008E600760881000130A00020084101D4070130BC
:1008F6004001A0002008F80705307802031CF72BFA
:10090600410153084001A000A101410154084001E2
:10091600A200A3012208F0002308F1000630F2002D
:100926000030F3008F315A27F8304001A4002530FB
:10093600A50070082407A6007108253DA700200819
:10094600260786002108273D870081010130A00087
:1009560020084101D40708004101B30020303302CA
:10096600031C08008030330203180800B20105306A
:10097600320203183F2D54305402031CCB2CD401F1
:100986000130A6002608D307063053020318D30108
:10099600503033020318EB2C0530A6002608A000C1
:1009A6003308E03E8F31062784314101A70027082E
:1009B600B10031083207A600A701A70D2C30260783
:1009C60084008230273D85000008A8002808B00072
:1009D60050303302031C0B2D0530A6002608A0005C
:1009E6003308B03E8F31062784314101A70027081E
:1009F600B10031083207A600A701A70D3C30260733
:100A060084008130273D85000008A8002808B00032
:100A16005308A600A7015408A800A9012808A000A9
:100A26002908A1000630A2000030A3008F31C62796
:100A36008431F8304101AA002530AB0020082A078E
:100A4600AC0021082B3DAD0026082C07AE00270878
:100A56002D3DAF002E0886002F0887003008810044
:100A66000130A6002608D4070130A6002608B207E2
:100A760005303202031CBE2C5308A600A7015408F9
:100A8600A800A9012808A0002908A1000630A20094
:100A96000030A3008F31C627F8304101AA00253067
:100AA600AB0020082A07AC0021082B3DAD00260824
:100AB6002C07860027082D3D870081010130A600FE
:100AC6002608D407080040011A159A141A14013092
:100AD6004101A0000030A1008E315E268531400123
:100AE6001A100A304101A0000030A1008E315E26A6
:100AF600853140011A1401304101A0000030A100E7
:100B06008E315E26853121308E31BC26853101300D
:100B16004101A0000030A1008E315E2685310430EF
:100B26008E31BC26853101304101A0000030A10084
:100B36008E315E26853116308E31BC2685310130E8
:100B46004101A0000030A1008E315E268531A03023
:100B56008E31BC26853101304101A0000030A10054
:100B66008E315E26853120308E31BC2685310130AE
:100B76004101A0000030A1008E315E2685310C3087
:100B86008E31BC26853101304101A0000030A10024
:100B96008E315E2608004E018C1240014A084B0138
:100BA6009D00400149084B019C004001470848044C
:100BB6000319E22D48088A0047080A0085314001DA
:100BC6004B084C04031D1E2E99100130CB0000303B
:100BD600CC0006308E316A2685318E31632685310A
:100BE600003A0319F02D8731FA2785317108400143
:100BF600C5007008C4000A30A0009030A100450866
:100C0600A3004408A200303083311C238531023012
:100C160087315A27853102304001AF002F08F00096
:100C260000308F317527853130308F311827853167
:100C360086316A26080040019914CB01CC010800D0
:100C460040308E31BC26863180308E31BC268631CE
:100C56004101AF0106302F0203180800AE015430DF
:100C66002E020318652E2F08A600A7012E08A8003D
:100C7600A9012808A0002908A1000630A20000301A
:100C8600A3008F31C6278631F8304101AA002530EE
:100C9600AB0020082A07AC0021082B3DAD00260832
:100CA6002C07860027082D3D870001088E31C926AE
:100CB600863101304101A6002608AE0754302E02C7
:100CC600031C362E0130A6002608AF072D2E403015
:100CD6008E318326863180308E31832686314001DF
:100CE600A1010630210203180800A0015430200299
:100CF6000318AB2E2108F600F7012008F800F901C9
:100D06007808F0007908F1000630F2000030F300B0
:100D16008F315A278631F830FA002530FB007008EB
:100D26007A07FC0071087B3DFD0076087C0786008B
:100D360077087D3D870001088E318E268631013089
:100D4600F60076084001A00754302002031C7D2ED1
:100D56000130F6007608A107742E8E31F42686310E
:100D6600C630860000308700B7308400003085002A
:100D76000D304101B60016001A00B60BBE2E8531A5
:100D8600662586318631EB2686314101A001083081
:100D96008F31AB278631B7308F312B27863186319D
:100DA600232686318B170B174101C401C50101307B
:100DB6004101C4070030C53D4508803AB60083307E
:100DC6003602031DE82EE8304402031CDA2ED72E25
:100DD6004101AF0106302F0203180800AE0154305E
:100DE6002E020318212F2F08A600A7012E08A800FF
:100DF600A9012808A0002908A1000630A200003099
:100E0600A3008F31C6278631F8304101AA0025306C
:100E1600AB0020082A07AC0021082B3DAD002608B0
:100E26002C07860027082D3D870081010130A6008A
:100E36002608AE0754302E02031CF62E0130A600FB
:100E46002608AF07ED2EF501F601700871040319A7
:100E5600552FF701F70AF11B3A2F0130F035F10D46
:100E6600890B312F0130F4007408F7072E2F01305B
:100E7600F535F60D890B3B2F71087302031D452FBF
:100E860070087202031C4C2F7008F2027108F33BC3
:100E960075140130F136F00C890B4D2F0130F70235
:100EA600031D3A2F7608F1007508F000080040018E
:100EB600A000A10154302102031808002008F60002
:100EC600F7012108F800F9017808F0007908F10027
:100ED6000630F2000030F3008F315A278731F830A0
:100EE600FA002530FB0070087A07FC0071087B3D8C
:100EF600FD0076087C07860077087D3D8700810126
:100F06000130F60076084001A1075D2F78087904C4
:100F16000319B02FFD01FD0AF91B9B2F0130F8358F
:100F2600F90D890B922F0130FC007C08FD078F2FED
:100F360079087B02031DA12F78087A02031CA72FCC
:100F46007808FA027908FB3B0130F936F80C890B70
:100F5600A82F0130FD02031D9B2F7B08F9007A089C
:100F6600F80008004101A1002108A0002008A30004
:100F76000830A0002008A20022080319D72F40013C
:100F86009A114101A31BCA2F40011A12CC2F40010E
:100F96001A169A1541012335A0002008A300013036
:100FA600A2022208031DC22F40019A110800F10077
:100FB6007108F0007008F3000830F0007008F200C5
:100FC60072080319F72F40019A11F31BEC2F1A121E
:100FD600ED2F1A169A157335F0007008F3000130DC
:100FE600F2027208031DE62F40019A110800410122
:0A0FF6001E08F1001D08F0000800BD
:101CB400023052018C0008005330890B5F2E000063
:101CC400080003104201111C03140030093D0800F0
:101CD400F000700841019F0042019117111408009F
:101CE4004F0196019701980199019A019B010800FF
:101CF400410121084001C800410120084001C700FA
:101D04000800F40040011A119A1074088731DA2788
:101D140040019A149A150800F40040011A159A100B
:101D240074088731DA2740019A149A150800623042
:101D340051018D008F0191010230930090012030F8
:101D4400920008006400800101310130FE0200307D
:101D5400FF3B7F087E0403190034A52EFE00120009
:101D64001E000130FE020030FF3B7F087E04031991
:101D74000034B12E4101A40040011A119A1041010E
:101D840024088731B52740019A149A1508004101A7
:101D9400A40040011A159A10410124088731B5277F
:101DA40040019A149A1508004E344F344934533480
:101DB400453420344D3445345434453452340A3493
:101DC4000034F300F201731CEB2E7008F10071086B
:101DD400F2070310F00D0310F30C7308031DE52E36
:101DE400720808008E3172268E318F31E2278E31CF
:101DF4008E3199268E318F3140278E318E315A267D
:101E04008E318F31902708004101A300A201231CC9
:101E14000F2F2008A1002108A2070310A00D031012
:101E2400A30C2308031D092F22080800FB007B08CC
:101E3400860087010108031908007B0886008701D2
:101E440001088331E9238F310130FA007A08FB0756
:101E5400192F4101B50035088600870101080319CF
:101E6400080035088600870101088431AF248F31CA
:101E740001304101B4003408B5072D2F41018C0114
:101E84008D018E018F019201930198019A019F01A6
:101E940042018C018D018E018F0190019201930109
:101EA400940195019601970198010430910008006E
:101EB400F401F501701C622F7208F4077308F53DF4
:101EC4000130F235F30D890B632F0130F136F00C3C
:101ED400890B682F70087104031D5C2F7508F100CD
:101EE4007408F0000800F20054307202031C7E2FC4
:101EF4005330F1007108F20006307002031C862F83
:101F04000530F1007108F0007208F1007108410118
:101F1400D4007008F1007108D300080073304B013D
:101F24009F0079309D009C011D084001CA004B01AF
:101F34001C084001C9004E018C1296160330410161
:101F4400A0000030A1008E317A2697304B019E000C
:101F540008004101A20054302202031CB52F533063
:101F6400A1002108A20006302002031CBD2F053069
:101F7400A1002108A0002208A1002108D400200803
:101F8400A1002108D30008004101A401A501201CDF
:101F9400CF2F2208A4072308A53D0130A235A30DA5
:101FA400890BD02F0130A136A00C890BD52F200826
:101FB4002104031DC92F2508A1002408A00008003E
:101FC4004001980199019A01DF309200FD3093009D
:101FD400C0309400DC307E01CE00FE30C300C73038
:101FE400B800E501C401B901CF01BA01C501D001AE
:101FF4007D014308E0390838C30008000134003487
:102004000A34003464340034E8340334103427349C
:062014002534693400349C
:020000040001F9
:0A000E00E83FFF3F9F3FFF3FFF3F29
:00000001FF
